{
  "contractName": "AWT",
  "abi": [
    {
      "constant": true,
      "inputs": [
        {
          "name": "",
          "type": "uint256"
        }
      ],
      "name": "myStructs",
      "outputs": [
        {
          "name": "field1",
          "type": "uint256"
        },
        {
          "name": "field2",
          "type": "uint256"
        }
      ],
      "payable": false,
      "stateMutability": "view",
      "type": "function"
    },
    {
      "anonymous": false,
      "inputs": [
        {
          "indexed": false,
          "name": "id",
          "type": "uint256"
        }
      ],
      "name": "DeviceAdded",
      "type": "event"
    },
    {
      "anonymous": false,
      "inputs": [
        {
          "indexed": false,
          "name": "id",
          "type": "uint256"
        },
        {
          "indexed": false,
          "name": "values",
          "type": "string"
        }
      ],
      "name": "ChangeValue",
      "type": "event"
    },
    {
      "constant": true,
      "inputs": [],
      "name": "pushStruct",
      "outputs": [
        {
          "name": "arrayLength",
          "type": "uint256"
        }
      ],
      "payable": false,
      "stateMutability": "view",
      "type": "function"
    },
    {
      "constant": false,
      "inputs": [
        {
          "name": "_title",
          "type": "string"
        },
        {
          "name": "_description",
          "type": "string"
        },
        {
          "name": "_values",
          "type": "string"
        },
        {
          "name": "_type_device",
          "type": "uint256"
        }
      ],
      "name": "create_device",
      "outputs": [],
      "payable": false,
      "stateMutability": "nonpayable",
      "type": "function"
    },
    {
      "constant": true,
      "inputs": [],
      "name": "returnNDevice",
      "outputs": [
        {
          "name": "",
          "type": "uint256"
        }
      ],
      "payable": false,
      "stateMutability": "view",
      "type": "function"
    },
    {
      "constant": true,
      "inputs": [
        {
          "name": "device_id",
          "type": "uint256"
        }
      ],
      "name": "show_type",
      "outputs": [
        {
          "name": "",
          "type": "uint256"
        }
      ],
      "payable": false,
      "stateMutability": "view",
      "type": "function"
    },
    {
      "constant": true,
      "inputs": [
        {
          "name": "device_id",
          "type": "uint256"
        }
      ],
      "name": "show_des",
      "outputs": [
        {
          "name": "",
          "type": "string"
        }
      ],
      "payable": false,
      "stateMutability": "view",
      "type": "function"
    },
    {
      "constant": true,
      "inputs": [
        {
          "name": "device_id",
          "type": "uint256"
        }
      ],
      "name": "get_title",
      "outputs": [
        {
          "name": "",
          "type": "string"
        }
      ],
      "payable": false,
      "stateMutability": "view",
      "type": "function"
    },
    {
      "constant": true,
      "inputs": [
        {
          "name": "device_id",
          "type": "uint256"
        }
      ],
      "name": "show_values",
      "outputs": [
        {
          "name": "",
          "type": "string"
        }
      ],
      "payable": false,
      "stateMutability": "view",
      "type": "function"
    },
    {
      "constant": true,
      "inputs": [
        {
          "name": "device_id",
          "type": "uint256"
        }
      ],
      "name": "show_activate",
      "outputs": [
        {
          "name": "",
          "type": "bool"
        }
      ],
      "payable": false,
      "stateMutability": "view",
      "type": "function"
    },
    {
      "constant": false,
      "inputs": [
        {
          "name": "device_id",
          "type": "uint256"
        },
        {
          "name": "_values",
          "type": "string"
        }
      ],
      "name": "update_values",
      "outputs": [],
      "payable": false,
      "stateMutability": "nonpayable",
      "type": "function"
    },
    {
      "constant": false,
      "inputs": [
        {
          "name": "device_id",
          "type": "uint256"
        },
        {
          "name": "title",
          "type": "string"
        }
      ],
      "name": "update_title",
      "outputs": [],
      "payable": false,
      "stateMutability": "nonpayable",
      "type": "function"
    },
    {
      "constant": false,
      "inputs": [
        {
          "name": "device_id",
          "type": "uint256"
        },
        {
          "name": "_type",
          "type": "uint256"
        }
      ],
      "name": "update_type",
      "outputs": [],
      "payable": false,
      "stateMutability": "nonpayable",
      "type": "function"
    },
    {
      "constant": false,
      "inputs": [
        {
          "name": "device_id",
          "type": "uint256"
        },
        {
          "name": "_collaborate_sensor",
          "type": "address"
        }
      ],
      "name": "update_collaborate_keys",
      "outputs": [],
      "payable": false,
      "stateMutability": "nonpayable",
      "type": "function"
    },
    {
      "constant": false,
      "inputs": [
        {
          "name": "device_id",
          "type": "uint256"
        },
        {
          "name": "_activate",
          "type": "bool"
        }
      ],
      "name": "update_activate",
      "outputs": [],
      "payable": false,
      "stateMutability": "nonpayable",
      "type": "function"
    },
    {
      "constant": true,
      "inputs": [],
      "name": "get_active_devices",
      "outputs": [
        {
          "name": "",
          "type": "uint256[]"
        }
      ],
      "payable": false,
      "stateMutability": "view",
      "type": "function"
    },
    {
      "constant": true,
      "inputs": [],
      "name": "get_devices_created",
      "outputs": [
        {
          "name": "",
          "type": "uint256[]"
        }
      ],
      "payable": false,
      "stateMutability": "view",
      "type": "function"
    },
    {
      "constant": true,
      "inputs": [
        {
          "name": "i",
          "type": "uint256"
        }
      ],
      "name": "get_device",
      "outputs": [
        {
          "name": "",
          "type": "string"
        },
        {
          "name": "",
          "type": "uint256"
        },
        {
          "name": "",
          "type": "string"
        },
        {
          "name": "",
          "type": "string"
        },
        {
          "name": "",
          "type": "address"
        }
      ],
      "payable": false,
      "stateMutability": "view",
      "type": "function"
    }
  ],
  "bytecode": "0x608060405234801561001057600080fd5b50611b2d806100206000396000f3006080604052600436106100f1576000357c0100000000000000000000000000000000000000000000000000000000900463ffffffff1680630c9f418e146100f6578063107d504c1461012f578063344d05c4146102e75780633f1729c8146103535780635fff0eb5146103c65780637f91da621461040b57806397b8d364146104365780639be0697e1461046d578063adabb35f1461056c578063c3edb3fa14610612578063d5be9cc4146106b8578063df90c8d31461075e578063e29089c2146107a6578063e4088d5414610812578063e81037771461083d578063f7438e941461088a578063f96ea6cb146108fd575b600080fd5b34801561010257600080fd5b5061012d6004803603810190808035906020019092919080351515906020019092919050505061093e565b005b34801561013b57600080fd5b5061015a600480360381019080803590602001909291905050506109f4565b604051808060200186815260200180602001806020018573ffffffffffffffffffffffffffffffffffffffff1673ffffffffffffffffffffffffffffffffffffffff168152602001848103845289818151815260200191508051906020019080838360005b838110156101da5780820151818401526020810190506101bf565b50505050905090810190601f1680156102075780820380516001836020036101000a031916815260200191505b50848103835287818151815260200191508051906020019080838360005b83811015610240578082015181840152602081019050610225565b50505050905090810190601f16801561026d5780820380516001836020036101000a031916815260200191505b50848103825286818151815260200191508051906020019080838360005b838110156102a657808201518184015260208101905061028b565b50505050905090810190601f1680156102d35780820380516001836020036101000a031916815260200191505b509850505050505050505060405180910390f35b3480156102f357600080fd5b506102fc610ca5565b6040518080602001828103825283818151815260200191508051906020019060200280838360005b8381101561033f578082015181840152602081019050610324565b505050509050019250505060405180910390f35b34801561035f57600080fd5b506103c460048036038101908080359060200190929190803590602001908201803590602001908080601f0160208091040260200160405190810160405280939291908181526020018383808284378201915050505050509192919290505050610eae565b005b3480156103d257600080fd5b506103f160048036038101908080359060200190929190505050610f61565b604051808215151515815260200191505060405180910390f35b34801561041757600080fd5b50610420610f97565b6040518082815260200191505060405180910390f35b34801561044257600080fd5b5061046b6004803603810190808035906020019092919080359060200190929190505050611008565b005b34801561047957600080fd5b5061056a600480360381019080803590602001908201803590602001908080601f0160208091040260200160405190810160405280939291908181526020018383808284378201915050505050509192919290803590602001908201803590602001908080601f0160208091040260200160405190810160405280939291908181526020018383808284378201915050505050509192919290803590602001908201803590602001908080601f0160208091040260200160405190810160405280939291908181526020018383808284378201915050505050509192919290803590602001909291905050506110ab565b005b34801561057857600080fd5b50610597600480360381019080803590602001909291905050506111e8565b6040518080602001828103825283818151815260200191508051906020019080838360005b838110156105d75780820151818401526020810190506105bc565b50505050905090810190601f1680156106045780820380516001836020036101000a031916815260200191505b509250505060405180910390f35b34801561061e57600080fd5b5061063d600480360381019080803590602001909291905050506112aa565b6040518080602001828103825283818151815260200191508051906020019080838360005b8381101561067d578082015181840152602081019050610662565b50505050905090810190601f1680156106aa5780820380516001836020036101000a031916815260200191505b509250505060405180910390f35b3480156106c457600080fd5b506106e36004803603810190808035906020019092919050505061136c565b6040518080602001828103825283818151815260200191508051906020019080838360005b83811015610723578082015181840152602081019050610708565b50505050905090810190601f1680156107505780820380516001836020036101000a031916815260200191505b509250505060405180910390f35b34801561076a57600080fd5b506107896004803603810190808035906020019092919050505061142e565b604051808381526020018281526020019250505060405180910390f35b3480156107b257600080fd5b506107bb611461565b6040518080602001828103825283818151815260200191508051906020019060200280838360005b838110156107fe5780820151818401526020810190506107e3565b505050509050019250505060405180910390f35b34801561081e57600080fd5b5061082761158f565b6040518082815260200191505060405180910390f35b34801561084957600080fd5b5061088860048036038101908080359060200190929190803573ffffffffffffffffffffffffffffffffffffffff1690602001909291905050506115a1565b005b34801561089657600080fd5b506108fb60048036038101908080359060200190929190803590602001908201803590602001908080601f01602080910402602001604051908101604052809392919081815260200183838082843782019150505050505091929192905050506116b8565b005b34801561090957600080fd5b506109286004803603810190808035906020019092919050505061180f565b6040518082815260200191505060405180910390f35b3373ffffffffffffffffffffffffffffffffffffffff1660008381548110151561096457fe5b906000526020600020906007020160050160009054906101000a900473ffffffffffffffffffffffffffffffffffffffff1673ffffffffffffffffffffffffffffffffffffffff161415156109b857600080fd5b806000838154811015156109c857fe5b906000526020600020906007020160000160006101000a81548160ff0219169083151502179055505050565b6060600060608060008086815481101515610a0b57fe5b9060005260206000209060070201600101600087815481101515610a2b57fe5b906000526020600020906007020160020154600088815481101515610a4c57fe5b9060005260206000209060070201600301600089815481101515610a6c57fe5b906000526020600020906007020160040160008a815481101515610a8c57fe5b906000526020600020906007020160050160009054906101000a900473ffffffffffffffffffffffffffffffffffffffff16848054600181600116156101000203166002900480601f016020809104026020016040519081016040528092919081815260200182805460018160011615610100020316600290048015610b535780601f10610b2857610100808354040283529160200191610b53565b820191906000526020600020905b815481529060010190602001808311610b3657829003601f168201915b50505050509450828054600181600116156101000203166002900480601f016020809104026020016040519081016040528092919081815260200182805460018160011615610100020316600290048015610bef5780601f10610bc457610100808354040283529160200191610bef565b820191906000526020600020905b815481529060010190602001808311610bd257829003601f168201915b50505050509250818054600181600116156101000203166002900480601f016020809104026020016040519081016040528092919081815260200182805460018160011615610100020316600290048015610c8b5780601f10610c6057610100808354040283529160200191610c8b565b820191906000526020600020905b815481529060010190602001808311610c6e57829003601f168201915b505050505091509450945094509450945091939590929450565b6060806000806060600080600080549050604051908082528060200260200182016040528015610ce45781602001602082028038833980820191505090505b50955060009450600093505b600080549050841015610e0c5760008685815181101515610d0d57fe5b90602001906020020190151590811515815250503373ffffffffffffffffffffffffffffffffffffffff16600085815481101515610d4757fe5b906000526020600020906007020160050160009054906101000a900473ffffffffffffffffffffffffffffffffffffffff1673ffffffffffffffffffffffffffffffffffffffff16148015610dcd575060011515600085815481101515610daa57fe5b906000526020600020906007020160000160009054906101000a900460ff161515145b15610dff5760018685815181101515610de257fe5b906020019060200201901515908115158152505084806001019550505b8380600101945050610cf0565b84604051908082528060200260200182016040528015610e3b5781602001602082028038833980820191505090505b50925060009150600090505b600080549050811015610ea2578581815181101515610e6257fe5b9060200190602002015115610e9557808383806001019450815181101515610e8657fe5b90602001906020020181815250505b8080600101915050610e47565b82965050505050505090565b3373ffffffffffffffffffffffffffffffffffffffff16600083815481101515610ed457fe5b906000526020600020906007020160050160009054906101000a900473ffffffffffffffffffffffffffffffffffffffff1673ffffffffffffffffffffffffffffffffffffffff16141515610f2857600080fd5b80600083815481101515610f3857fe5b90600052602060002090600702016003019080519060200190610f5c929190611838565b505050565b60008082815481101515610f7157fe5b906000526020600020906007020160000160009054906101000a900460ff169050919050565b6000610fa16118b8565b6001816000018181525050600281602001818152505060018190806001815401808255809150509060018203906000526020600020906002020160009091929091909150600082015181600001556020820151816001015550505060018054905091505090565b3373ffffffffffffffffffffffffffffffffffffffff1660008381548110151561102e57fe5b906000526020600020906007020160050160009054906101000a900473ffffffffffffffffffffffffffffffffffffffff1673ffffffffffffffffffffffffffffffffffffffff1614151561108257600080fd5b8060008381548110151561109257fe5b9060005260206000209060070201600201819055505050565b600080600080548091906001016110c291906118d2565b91506000828154811015156110d357fe5b9060005260206000209060070201905060018160000160006101000a81548160ff02191690831515021790555083816001019080519060200190611118929190611838565b508281600201819055508581600301908051906020019061113a929190611838565b5084816004019080519060200190611153929190611838565b50338160050160006101000a81548173ffffffffffffffffffffffffffffffffffffffff021916908373ffffffffffffffffffffffffffffffffffffffff16021790555060006040519080825280602002602001820160405280156111c75781602001602082028038833980820191505090505b508160060190805190602001906111df929190611904565b50505050505050565b60606000828154811015156111f957fe5b90600052602060002090600702016004018054600181600116156101000203166002900480601f01602080910402602001604051908101604052809291908181526020018280546001816001161561010002031660029004801561129e5780601f106112735761010080835404028352916020019161129e565b820191906000526020600020905b81548152906001019060200180831161128157829003601f168201915b50505050509050919050565b60606000828154811015156112bb57fe5b90600052602060002090600702016003018054600181600116156101000203166002900480601f0160208091040260200160405190810160405280929190818152602001828054600181600116156101000203166002900480156113605780601f1061133557610100808354040283529160200191611360565b820191906000526020600020905b81548152906001019060200180831161134357829003601f168201915b50505050509050919050565b606060008281548110151561137d57fe5b90600052602060002090600702016001018054600181600116156101000203166002900480601f0160208091040260200160405190810160405280929190818152602001828054600181600116156101000203166002900480156114225780601f106113f757610100808354040283529160200191611422565b820191906000526020600020905b81548152906001019060200180831161140557829003601f168201915b50505050509050919050565b60018181548110151561143d57fe5b90600052602060002090600202016000915090508060000154908060010154905082565b6060600080606060008060009450600093505b6000805490508410156114d1576001151560008581548110151561149457fe5b906000526020600020906007020160000160009054906101000a900460ff16151514156114c45784806001019550505b8380600101945050611474565b846040519080825280602002602001820160405280156115005781602001602082028038833980820191505090505b50925060009150600090505b600080549050811015611584576001151560008281548110151561152c57fe5b906000526020600020906007020160000160009054906101000a900460ff16151514156115775780838380600101945081518110151561156857fe5b90602001906020020181815250505b808060010191505061150c565b829550505050505090565b60008060008054905090508091505090565b3373ffffffffffffffffffffffffffffffffffffffff166000838154811015156115c757fe5b906000526020600020906007020160050160009054906101000a900473ffffffffffffffffffffffffffffffffffffffff1673ffffffffffffffffffffffffffffffffffffffff1614151561161b57600080fd5b8060008381548110151561162b57fe5b906000526020600020906007020160060160008481548110151561164b57fe5b90600052602060002090600702016006018054905081548110151561166c57fe5b9060005260206000200160006101000a81548173ffffffffffffffffffffffffffffffffffffffff021916908373ffffffffffffffffffffffffffffffffffffffff1602179055505050565b3373ffffffffffffffffffffffffffffffffffffffff166000838154811015156116de57fe5b906000526020600020906007020160050160009054906101000a900473ffffffffffffffffffffffffffffffffffffffff1673ffffffffffffffffffffffffffffffffffffffff1614151561173257600080fd5b8060008381548110151561174257fe5b90600052602060002090600702016001019080519060200190611766929190611838565b507fbd813263e96eb54ea7f4b9a77860b00ee9a38e84f85a6d3958f15972eae1541b82826040518083815260200180602001828103825283818151815260200191508051906020019080838360005b838110156117d05780820151818401526020810190506117b5565b50505050905090810190601f1680156117fd5780820380516001836020036101000a031916815260200191505b50935050505060405180910390a15050565b6000808281548110151561181f57fe5b9060005260206000209060070201600201549050919050565b828054600181600116156101000203166002900490600052602060002090601f016020900481019282601f1061187957805160ff19168380011785556118a7565b828001600101855582156118a7579182015b828111156118a657825182559160200191906001019061188b565b5b5090506118b4919061198e565b5090565b604080519081016040528060008152602001600081525090565b8154818355818111156118ff576007028160070283600052602060002091820191016118fe91906119b3565b5b505050565b82805482825590600052602060002090810192821561197d579160200282015b8281111561197c5782518260006101000a81548173ffffffffffffffffffffffffffffffffffffffff021916908373ffffffffffffffffffffffffffffffffffffffff16021790555091602001919060010190611924565b5b50905061198a9190611a55565b5090565b6119b091905b808211156119ac576000816000905550600101611994565b5090565b90565b611a5291905b80821115611a4e57600080820160006101000a81549060ff02191690556001820160006119e69190611a98565b60028201600090556003820160006119fe9190611a98565b600482016000611a0e9190611a98565b6005820160006101000a81549073ffffffffffffffffffffffffffffffffffffffff0219169055600682016000611a459190611ae0565b506007016119b9565b5090565b90565b611a9591905b80821115611a9157600081816101000a81549073ffffffffffffffffffffffffffffffffffffffff021916905550600101611a5b565b5090565b90565b50805460018160011615610100020316600290046000825580601f10611abe5750611add565b601f016020900490600052602060002090810190611adc919061198e565b5b50565b5080546000825590600052602060002090810190611afe919061198e565b505600a165627a7a723058201c48b84e06436262fb92e9e19553d4eab02988bd91e025b150db1b0e7b14f2b60029",
  "source": "pragma solidity ^0.4.0;\ncontract AWT{\n    struct Device{\n        bool isActive;\n        string values;\n        uint type_device;\n        string title;\n        string description;\n        address creator;\n        address[] collaborate_keys;\n    }\n    Device[] devices;\n\n    event DeviceAdded(uint id);\n    event ChangeValue(\n       uint id,string values\n    );\n    struct MyStruct {\n        uint field1;\n        uint field2;\n    }\n\n    MyStruct[] public myStructs;\n\n    function pushStruct() \n        constant\n        returns(uint arrayLength) \n    {\n        MyStruct memory m;\n        m.field1 = 1;\n        m.field2 = 2;\n        myStructs.push(m);\n        return myStructs.length;\n    }\n    \n\n\n\n    function create_device(string _title, string _description, string _values, uint _type_device) public\n        {\n        \n        uint offSet = devices.length++;\n        Device m = devices[offSet];\n        m.isActive = true;\n        m.values = _values;\n        m.type_device = _type_device;\n        m.title = _title;\n        m.description = _description;\n        m.creator = msg.sender;\n        m.collaborate_keys = new address[](0);       \n        \n\n\n    }\n    \n    \n    function returnNDevice() constant returns(uint) {\n        uint nbr_offer =devices.length;\n        return(nbr_offer);\n    }\n\n\n\n    function show_type(uint device_id) constant returns (uint){\n        return devices[device_id].type_device;\n    }\n     function show_des(uint device_id) constant returns (string){\n        return devices[device_id].description;\n    }\n\n    function get_title(uint device_id) constant returns (string){\n        return devices[device_id].title;\n    }\n\n    function show_values(uint device_id) constant returns (string){\n        return devices[device_id].values;\n    }\n      function show_activate(uint device_id) constant returns (bool){\n        return devices[device_id].isActive;\n    }\n\n\n    function update_values(uint device_id, string _values){\n        require(devices[device_id].creator == msg.sender);\n        devices[device_id].values = _values;\n        ChangeValue(device_id,_values);\n    }\n\n    function update_title(uint device_id, string title){\n        require(devices[device_id].creator == msg.sender);\n        devices[device_id].title = title;\n    }\n    function update_type(uint device_id, uint _type){\n        require(devices[device_id].creator == msg.sender);\n        devices[device_id].type_device = _type;\n    }\n    \n    function update_collaborate_keys(uint device_id, address _collaborate_sensor){\n        require(devices[device_id].creator == msg.sender);\n        devices[device_id].collaborate_keys[devices[device_id].collaborate_keys.length] = _collaborate_sensor;\n    }\n     function update_activate(uint device_id, bool _activate){\n        require(devices[device_id].creator == msg.sender);\n        devices[device_id].isActive = _activate;\n    }\n    \n    \n\n\n \n\n    function get_active_devices() constant returns (uint[]){\n        uint numActive = 0;\n        for(uint i = 0; i < devices.length; i++){\n            if (devices[i].isActive == true) {\n               numActive++;\n            }\n        }\n        uint[] memory activeProjects = new uint[](numActive);\n        uint idx = 0;\n        for(uint j = 0; j < devices.length; j++){\n            if (devices[j].isActive == true) {\n               activeProjects[idx++] = j;\n            }\n        }\n        return activeProjects;\n    }\n\n\n\n\n    function get_devices_created() constant returns (uint[]){\n        bool[] memory hasCreatedProject = new bool[](devices.length);\n        uint numberOfCreatedProjects = 0;\n        for(uint i = 0; i < devices.length; i++){\n            hasCreatedProject[i] = false;\n            if(devices[i].creator == msg.sender && devices[i].isActive == true){\n                hasCreatedProject[i] = true;\n                numberOfCreatedProjects++;\n            }\n        }\n        uint[] memory output = new uint[](numberOfCreatedProjects);\n        uint idx = 0;\n        for(uint j = 0; j < devices.length; j++){\n            if(hasCreatedProject[j]){\n                output[idx++] = j;\n            }\n        }\n        return output;\n    }\n    \n    function get_device(uint i) constant returns(string, uint, string, string, address){\n        return (devices[i].values, devices[i].type_device, devices[i].title, devices[i].description, devices[i].creator);\n    }\n}\n",
  "sourcePath": "/home/p/Documents/AWT/Front-end/ui/my-project/src/NodeJs/Blockchain/contracts/AWT.sol",
  "compiler": {
    "name": "solc",
    "version": "0.4.24+commit.e67f0147.Emscripten.clang"
  },
  "schemaVersion": "2.0.0",
  "updatedAt": "2018-06-11T12:31:59.100Z"
}