{
  "contractName": "AWT",
  "abi": [
    {
      "constant": true,
      "inputs": [
        {
          "name": "",
          "type": "uint256"
        }
      ],
      "name": "myStructs",
      "outputs": [
        {
          "name": "field1",
          "type": "uint256"
        },
        {
          "name": "field2",
          "type": "uint256"
        }
      ],
      "payable": false,
      "stateMutability": "view",
      "type": "function"
    },
    {
      "anonymous": false,
      "inputs": [
        {
          "indexed": false,
          "name": "id",
          "type": "uint256"
        }
      ],
      "name": "DeviceAdded",
      "type": "event"
    },
    {
      "constant": true,
      "inputs": [],
      "name": "pushStruct",
      "outputs": [
        {
          "name": "arrayLength",
          "type": "uint256"
        }
      ],
      "payable": false,
      "stateMutability": "view",
      "type": "function"
    },
    {
      "constant": false,
      "inputs": [
        {
          "name": "_title",
          "type": "string"
        },
        {
          "name": "_description",
          "type": "string"
        },
        {
          "name": "_values",
          "type": "string"
        },
        {
          "name": "_type_device",
          "type": "uint256"
        }
      ],
      "name": "create_device",
      "outputs": [],
      "payable": false,
      "stateMutability": "nonpayable",
      "type": "function"
    },
    {
      "constant": true,
      "inputs": [],
      "name": "returnNDevice",
      "outputs": [
        {
          "name": "",
          "type": "uint256"
        }
      ],
      "payable": false,
      "stateMutability": "view",
      "type": "function"
    },
    {
      "constant": true,
      "inputs": [
        {
          "name": "device_id",
          "type": "uint256"
        }
      ],
      "name": "show_type",
      "outputs": [
        {
          "name": "",
          "type": "uint256"
        }
      ],
      "payable": false,
      "stateMutability": "view",
      "type": "function"
    },
    {
      "constant": true,
      "inputs": [
        {
          "name": "device_id",
          "type": "uint256"
        }
      ],
      "name": "show_des",
      "outputs": [
        {
          "name": "",
          "type": "string"
        }
      ],
      "payable": false,
      "stateMutability": "view",
      "type": "function"
    },
    {
      "constant": true,
      "inputs": [
        {
          "name": "device_id",
          "type": "uint256"
        }
      ],
      "name": "get_title",
      "outputs": [
        {
          "name": "",
          "type": "string"
        }
      ],
      "payable": false,
      "stateMutability": "view",
      "type": "function"
    },
    {
      "constant": true,
      "inputs": [
        {
          "name": "device_id",
          "type": "uint256"
        }
      ],
      "name": "show_values",
      "outputs": [
        {
          "name": "",
          "type": "string"
        }
      ],
      "payable": false,
      "stateMutability": "view",
      "type": "function"
    },
    {
      "constant": false,
      "inputs": [
        {
          "name": "device_id",
          "type": "uint256"
        },
        {
          "name": "_values",
          "type": "string"
        }
      ],
      "name": "update_values",
      "outputs": [],
      "payable": false,
      "stateMutability": "nonpayable",
      "type": "function"
    },
    {
      "constant": false,
      "inputs": [
        {
          "name": "device_id",
          "type": "uint256"
        },
        {
          "name": "title",
          "type": "string"
        }
      ],
      "name": "update_title",
      "outputs": [],
      "payable": false,
      "stateMutability": "nonpayable",
      "type": "function"
    },
    {
      "constant": false,
      "inputs": [
        {
          "name": "device_id",
          "type": "uint256"
        },
        {
          "name": "_type",
          "type": "uint256"
        }
      ],
      "name": "update_type",
      "outputs": [],
      "payable": false,
      "stateMutability": "nonpayable",
      "type": "function"
    },
    {
      "constant": false,
      "inputs": [
        {
          "name": "device_id",
          "type": "uint256"
        },
        {
          "name": "_collaborate_sensor",
          "type": "address"
        }
      ],
      "name": "update_collaborate_keys",
      "outputs": [],
      "payable": false,
      "stateMutability": "nonpayable",
      "type": "function"
    },
    {
      "constant": true,
      "inputs": [],
      "name": "get_active_devices",
      "outputs": [
        {
          "name": "",
          "type": "uint256[]"
        }
      ],
      "payable": false,
      "stateMutability": "view",
      "type": "function"
    },
    {
      "constant": true,
      "inputs": [],
      "name": "get_devices_created",
      "outputs": [
        {
          "name": "",
          "type": "uint256[]"
        }
      ],
      "payable": false,
      "stateMutability": "view",
      "type": "function"
    },
    {
      "constant": true,
      "inputs": [
        {
          "name": "i",
          "type": "uint256"
        }
      ],
      "name": "get_device",
      "outputs": [
        {
          "name": "",
          "type": "string"
        },
        {
          "name": "",
          "type": "uint256"
        },
        {
          "name": "",
          "type": "string"
        },
        {
          "name": "",
          "type": "string"
        },
        {
          "name": "",
          "type": "address"
        }
      ],
      "payable": false,
      "stateMutability": "view",
      "type": "function"
    }
  ],
  "bytecode": "0x608060405234801561001057600080fd5b50611909806100206000396000f3006080604052600436106100db576000357c0100000000000000000000000000000000000000000000000000000000900463ffffffff168063107d504c146100e0578063344d05c4146102985780633f1729c8146103045780637f91da621461037757806397b8d364146103a25780639be0697e146103d9578063adabb35f146104d8578063c3edb3fa1461057e578063d5be9cc414610624578063df90c8d3146106ca578063e29089c214610712578063e4088d541461077e578063e8103777146107a9578063f7438e94146107f6578063f96ea6cb14610869575b600080fd5b3480156100ec57600080fd5b5061010b600480360381019080803590602001909291905050506108aa565b604051808060200186815260200180602001806020018573ffffffffffffffffffffffffffffffffffffffff1673ffffffffffffffffffffffffffffffffffffffff168152602001848103845289818151815260200191508051906020019080838360005b8381101561018b578082015181840152602081019050610170565b50505050905090810190601f1680156101b85780820380516001836020036101000a031916815260200191505b50848103835287818151815260200191508051906020019080838360005b838110156101f15780820151818401526020810190506101d6565b50505050905090810190601f16801561021e5780820380516001836020036101000a031916815260200191505b50848103825286818151815260200191508051906020019080838360005b8381101561025757808201518184015260208101905061023c565b50505050905090810190601f1680156102845780820380516001836020036101000a031916815260200191505b509850505050505050505060405180910390f35b3480156102a457600080fd5b506102ad610b5b565b6040518080602001828103825283818151815260200191508051906020019060200280838360005b838110156102f05780820151818401526020810190506102d5565b505050509050019250505060405180910390f35b34801561031057600080fd5b5061037560048036038101908080359060200190929190803590602001908201803590602001908080601f0160208091040260200160405190810160405280939291908181526020018383808284378201915050505050509192919290505050610d64565b005b34801561038357600080fd5b5061038c610e17565b6040518082815260200191505060405180910390f35b3480156103ae57600080fd5b506103d76004803603810190808035906020019092919080359060200190929190505050610e88565b005b3480156103e557600080fd5b506104d6600480360381019080803590602001908201803590602001908080601f0160208091040260200160405190810160405280939291908181526020018383808284378201915050505050509192919290803590602001908201803590602001908080601f0160208091040260200160405190810160405280939291908181526020018383808284378201915050505050509192919290803590602001908201803590602001908080601f016020809104026020016040519081016040528093929190818152602001838380828437820191505050505050919291929080359060200190929190505050610f2b565b005b3480156104e457600080fd5b5061050360048036038101908080359060200190929190505050611068565b6040518080602001828103825283818151815260200191508051906020019080838360005b83811015610543578082015181840152602081019050610528565b50505050905090810190601f1680156105705780820380516001836020036101000a031916815260200191505b509250505060405180910390f35b34801561058a57600080fd5b506105a96004803603810190808035906020019092919050505061112a565b6040518080602001828103825283818151815260200191508051906020019080838360005b838110156105e95780820151818401526020810190506105ce565b50505050905090810190601f1680156106165780820380516001836020036101000a031916815260200191505b509250505060405180910390f35b34801561063057600080fd5b5061064f600480360381019080803590602001909291905050506111ec565b6040518080602001828103825283818151815260200191508051906020019080838360005b8381101561068f578082015181840152602081019050610674565b50505050905090810190601f1680156106bc5780820380516001836020036101000a031916815260200191505b509250505060405180910390f35b3480156106d657600080fd5b506106f5600480360381019080803590602001909291905050506112ae565b604051808381526020018281526020019250505060405180910390f35b34801561071e57600080fd5b506107276112e1565b6040518080602001828103825283818151815260200191508051906020019060200280838360005b8381101561076a57808201518184015260208101905061074f565b505050509050019250505060405180910390f35b34801561078a57600080fd5b5061079361140f565b6040518082815260200191505060405180910390f35b3480156107b557600080fd5b506107f460048036038101908080359060200190929190803573ffffffffffffffffffffffffffffffffffffffff169060200190929190505050611421565b005b34801561080257600080fd5b5061086760048036038101908080359060200190929190803590602001908201803590602001908080601f0160208091040260200160405190810160405280939291908181526020018383808284378201915050505050509192919290505050611538565b005b34801561087557600080fd5b50610894600480360381019080803590602001909291905050506115eb565b6040518082815260200191505060405180910390f35b60606000606080600080868154811015156108c157fe5b90600052602060002090600702016001016000878154811015156108e157fe5b90600052602060002090600702016002015460008881548110151561090257fe5b906000526020600020906007020160030160008981548110151561092257fe5b906000526020600020906007020160040160008a81548110151561094257fe5b906000526020600020906007020160050160009054906101000a900473ffffffffffffffffffffffffffffffffffffffff16848054600181600116156101000203166002900480601f016020809104026020016040519081016040528092919081815260200182805460018160011615610100020316600290048015610a095780601f106109de57610100808354040283529160200191610a09565b820191906000526020600020905b8154815290600101906020018083116109ec57829003601f168201915b50505050509450828054600181600116156101000203166002900480601f016020809104026020016040519081016040528092919081815260200182805460018160011615610100020316600290048015610aa55780601f10610a7a57610100808354040283529160200191610aa5565b820191906000526020600020905b815481529060010190602001808311610a8857829003601f168201915b50505050509250818054600181600116156101000203166002900480601f016020809104026020016040519081016040528092919081815260200182805460018160011615610100020316600290048015610b415780601f10610b1657610100808354040283529160200191610b41565b820191906000526020600020905b815481529060010190602001808311610b2457829003601f168201915b505050505091509450945094509450945091939590929450565b6060806000806060600080600080549050604051908082528060200260200182016040528015610b9a5781602001602082028038833980820191505090505b50955060009450600093505b600080549050841015610cc25760008685815181101515610bc357fe5b90602001906020020190151590811515815250503373ffffffffffffffffffffffffffffffffffffffff16600085815481101515610bfd57fe5b906000526020600020906007020160050160009054906101000a900473ffffffffffffffffffffffffffffffffffffffff1673ffffffffffffffffffffffffffffffffffffffff16148015610c83575060011515600085815481101515610c6057fe5b906000526020600020906007020160000160009054906101000a900460ff161515145b15610cb55760018685815181101515610c9857fe5b906020019060200201901515908115158152505084806001019550505b8380600101945050610ba6565b84604051908082528060200260200182016040528015610cf15781602001602082028038833980820191505090505b50925060009150600090505b600080549050811015610d58578581815181101515610d1857fe5b9060200190602002015115610d4b57808383806001019450815181101515610d3c57fe5b90602001906020020181815250505b8080600101915050610cfd565b82965050505050505090565b3373ffffffffffffffffffffffffffffffffffffffff16600083815481101515610d8a57fe5b906000526020600020906007020160050160009054906101000a900473ffffffffffffffffffffffffffffffffffffffff1673ffffffffffffffffffffffffffffffffffffffff16141515610dde57600080fd5b80600083815481101515610dee57fe5b90600052602060002090600702016003019080519060200190610e12929190611614565b505050565b6000610e21611694565b6001816000018181525050600281602001818152505060018190806001815401808255809150509060018203906000526020600020906002020160009091929091909150600082015181600001556020820151816001015550505060018054905091505090565b3373ffffffffffffffffffffffffffffffffffffffff16600083815481101515610eae57fe5b906000526020600020906007020160050160009054906101000a900473ffffffffffffffffffffffffffffffffffffffff1673ffffffffffffffffffffffffffffffffffffffff16141515610f0257600080fd5b80600083815481101515610f1257fe5b9060005260206000209060070201600201819055505050565b60008060008054809190600101610f4291906116ae565b9150600082815481101515610f5357fe5b9060005260206000209060070201905060018160000160006101000a81548160ff02191690831515021790555083816001019080519060200190610f98929190611614565b5082816002018190555085816003019080519060200190610fba929190611614565b5084816004019080519060200190610fd3929190611614565b50338160050160006101000a81548173ffffffffffffffffffffffffffffffffffffffff021916908373ffffffffffffffffffffffffffffffffffffffff16021790555060006040519080825280602002602001820160405280156110475781602001602082028038833980820191505090505b5081600601908051906020019061105f9291906116e0565b50505050505050565b606060008281548110151561107957fe5b90600052602060002090600702016004018054600181600116156101000203166002900480601f01602080910402602001604051908101604052809291908181526020018280546001816001161561010002031660029004801561111e5780601f106110f35761010080835404028352916020019161111e565b820191906000526020600020905b81548152906001019060200180831161110157829003601f168201915b50505050509050919050565b606060008281548110151561113b57fe5b90600052602060002090600702016003018054600181600116156101000203166002900480601f0160208091040260200160405190810160405280929190818152602001828054600181600116156101000203166002900480156111e05780601f106111b5576101008083540402835291602001916111e0565b820191906000526020600020905b8154815290600101906020018083116111c357829003601f168201915b50505050509050919050565b60606000828154811015156111fd57fe5b90600052602060002090600702016001018054600181600116156101000203166002900480601f0160208091040260200160405190810160405280929190818152602001828054600181600116156101000203166002900480156112a25780601f10611277576101008083540402835291602001916112a2565b820191906000526020600020905b81548152906001019060200180831161128557829003601f168201915b50505050509050919050565b6001818154811015156112bd57fe5b90600052602060002090600202016000915090508060000154908060010154905082565b6060600080606060008060009450600093505b600080549050841015611351576001151560008581548110151561131457fe5b906000526020600020906007020160000160009054906101000a900460ff16151514156113445784806001019550505b83806001019450506112f4565b846040519080825280602002602001820160405280156113805781602001602082028038833980820191505090505b50925060009150600090505b60008054905081101561140457600115156000828154811015156113ac57fe5b906000526020600020906007020160000160009054906101000a900460ff16151514156113f7578083838060010194508151811015156113e857fe5b90602001906020020181815250505b808060010191505061138c565b829550505050505090565b60008060008054905090508091505090565b3373ffffffffffffffffffffffffffffffffffffffff1660008381548110151561144757fe5b906000526020600020906007020160050160009054906101000a900473ffffffffffffffffffffffffffffffffffffffff1673ffffffffffffffffffffffffffffffffffffffff1614151561149b57600080fd5b806000838154811015156114ab57fe5b90600052602060002090600702016006016000848154811015156114cb57fe5b9060005260206000209060070201600601805490508154811015156114ec57fe5b9060005260206000200160006101000a81548173ffffffffffffffffffffffffffffffffffffffff021916908373ffffffffffffffffffffffffffffffffffffffff1602179055505050565b3373ffffffffffffffffffffffffffffffffffffffff1660008381548110151561155e57fe5b906000526020600020906007020160050160009054906101000a900473ffffffffffffffffffffffffffffffffffffffff1673ffffffffffffffffffffffffffffffffffffffff161415156115b257600080fd5b806000838154811015156115c257fe5b906000526020600020906007020160010190805190602001906115e6929190611614565b505050565b600080828154811015156115fb57fe5b9060005260206000209060070201600201549050919050565b828054600181600116156101000203166002900490600052602060002090601f016020900481019282601f1061165557805160ff1916838001178555611683565b82800160010185558215611683579182015b82811115611682578251825591602001919060010190611667565b5b509050611690919061176a565b5090565b604080519081016040528060008152602001600081525090565b8154818355818111156116db576007028160070283600052602060002091820191016116da919061178f565b5b505050565b828054828255906000526020600020908101928215611759579160200282015b828111156117585782518260006101000a81548173ffffffffffffffffffffffffffffffffffffffff021916908373ffffffffffffffffffffffffffffffffffffffff16021790555091602001919060010190611700565b5b5090506117669190611831565b5090565b61178c91905b80821115611788576000816000905550600101611770565b5090565b90565b61182e91905b8082111561182a57600080820160006101000a81549060ff02191690556001820160006117c29190611874565b60028201600090556003820160006117da9190611874565b6004820160006117ea9190611874565b6005820160006101000a81549073ffffffffffffffffffffffffffffffffffffffff021916905560068201600061182191906118bc565b50600701611795565b5090565b90565b61187191905b8082111561186d57600081816101000a81549073ffffffffffffffffffffffffffffffffffffffff021916905550600101611837565b5090565b90565b50805460018160011615610100020316600290046000825580601f1061189a57506118b9565b601f0160209004906000526020600020908101906118b8919061176a565b5b50565b50805460008255906000526020600020908101906118da919061176a565b505600a165627a7a7230582008f58154fac189293ab4d58e0df955be23330113adb95206b8867757ae30611a0029",
  "source": "pragma solidity ^0.4.0;\ncontract AWT{\n    struct Device{\n        bool isActive;\n        string values;\n        uint type_device;\n        string title;\n        string description;\n        address creator;\n        address[] collaborate_keys;\n    }\n    Device[] devices;\n\n    event DeviceAdded(uint id);\n    struct MyStruct {\n        uint field1;\n        uint field2;\n    }\n\n    MyStruct[] public myStructs;\n\n    function pushStruct() \n        constant\n        returns(uint arrayLength) \n    {\n        MyStruct memory m;\n        m.field1 = 1;\n        m.field2 = 2;\n        myStructs.push(m);\n        return myStructs.length;\n    }\n    \n\n\n\n    function create_device(string _title, string _description, string _values, uint _type_device) public\n        {\n        \n        uint offSet = devices.length++;\n        Device m = devices[offSet];\n        m.isActive = true;\n        m.values = _values;\n        m.type_device = _type_device;\n        m.title = _title;\n        m.description = _description;\n        m.creator = msg.sender;\n        m.collaborate_keys = new address[](0);       \n        \n\n\n    }\n    \n    \n    function returnNDevice() constant returns(uint) {\n        uint nbr_offer =devices.length;\n        return(nbr_offer);\n    }\n\n\n\n    function show_type(uint device_id) constant returns (uint){\n        return devices[device_id].type_device;\n    }\n     function show_des(uint device_id) constant returns (string){\n        return devices[device_id].description;\n    }\n\n    function get_title(uint device_id) constant returns (string){\n        return devices[device_id].title;\n    }\n\n    function show_values(uint device_id) constant returns (string){\n        return devices[device_id].values;\n    }\n\n\n    function update_values(uint device_id, string _values){\n        require(devices[device_id].creator == msg.sender);\n        devices[device_id].values = _values;\n    }\n\n    function update_title(uint device_id, string title){\n        require(devices[device_id].creator == msg.sender);\n        devices[device_id].title = title;\n    }\n    function update_type(uint device_id, uint _type){\n        require(devices[device_id].creator == msg.sender);\n        devices[device_id].type_device = _type;\n    }\n    \n    function update_collaborate_keys(uint device_id, address _collaborate_sensor){\n        require(devices[device_id].creator == msg.sender);\n        devices[device_id].collaborate_keys[devices[device_id].collaborate_keys.length] = _collaborate_sensor;\n    }\n    \n    \n\n\n \n\n    function get_active_devices() constant returns (uint[]){\n        uint numActive = 0;\n        for(uint i = 0; i < devices.length; i++){\n            if (devices[i].isActive == true) {\n               numActive++;\n            }\n        }\n        uint[] memory activeProjects = new uint[](numActive);\n        uint idx = 0;\n        for(uint j = 0; j < devices.length; j++){\n            if (devices[j].isActive == true) {\n               activeProjects[idx++] = j;\n            }\n        }\n        return activeProjects;\n    }\n\n\n\n\n    function get_devices_created() constant returns (uint[]){\n        bool[] memory hasCreatedProject = new bool[](devices.length);\n        uint numberOfCreatedProjects = 0;\n        for(uint i = 0; i < devices.length; i++){\n            hasCreatedProject[i] = false;\n            if(devices[i].creator == msg.sender && devices[i].isActive == true){\n                hasCreatedProject[i] = true;\n                numberOfCreatedProjects++;\n            }\n        }\n        uint[] memory output = new uint[](numberOfCreatedProjects);\n        uint idx = 0;\n        for(uint j = 0; j < devices.length; j++){\n            if(hasCreatedProject[j]){\n                output[idx++] = j;\n            }\n        }\n        return output;\n    }\n    \n    function get_device(uint i) constant returns(string, uint, string, string, address){\n        return (devices[i].values, devices[i].type_device, devices[i].title, devices[i].description, devices[i].creator);\n    }\n}\n",
  "sourcePath": "/home/p/Documents/AWT/NodeJs/Blockchain/contracts/AWT.sol",
  "compiler": {
    "name": "solc",
    "version": "0.4.24+commit.e67f0147.Emscripten.clang"
  },
  "schemaVersion": "2.0.0",
  "updatedAt": "2018-06-09T10:13:44.764Z"
}